{
  "address": "0x284389e0325B0Ef34eA906e71072cb57b32114BB",
  "abi": [
    {
      "inputs": [
        {
          "internalType": "string",
          "name": "_eventName",
          "type": "string"
        },
        {
          "internalType": "uint256",
          "name": "_maxSeatNumber",
          "type": "uint256"
        },
        {
          "internalType": "string",
          "name": "_eventLocation",
          "type": "string"
        },
        {
          "internalType": "string",
          "name": "_eventDate",
          "type": "string"
        }
      ],
      "stateMutability": "nonpayable",
      "type": "constructor"
    },
    {
      "anonymous": false,
      "inputs": [
        {
          "indexed": true,
          "internalType": "address",
          "name": "previousOwner",
          "type": "address"
        },
        {
          "indexed": true,
          "internalType": "address",
          "name": "newOwner",
          "type": "address"
        }
      ],
      "name": "OwnershipTransferred",
      "type": "event"
    },
    {
      "anonymous": false,
      "inputs": [
        {
          "indexed": false,
          "internalType": "address",
          "name": "buyer",
          "type": "address"
        },
        {
          "indexed": false,
          "internalType": "uint256",
          "name": "_seatNo",
          "type": "uint256"
        }
      ],
      "name": "seatPurchase",
      "type": "event"
    },
    {
      "inputs": [],
      "name": "buySeat",
      "outputs": [
        {
          "internalType": "bool",
          "name": "",
          "type": "bool"
        }
      ],
      "stateMutability": "payable",
      "type": "function"
    },
    {
      "inputs": [
        {
          "internalType": "uint256",
          "name": "_price",
          "type": "uint256"
        }
      ],
      "name": "changePrice",
      "outputs": [],
      "stateMutability": "nonpayable",
      "type": "function"
    },
    {
      "inputs": [],
      "name": "counter",
      "outputs": [
        {
          "internalType": "uint256",
          "name": "",
          "type": "uint256"
        }
      ],
      "stateMutability": "view",
      "type": "function"
    },
    {
      "inputs": [],
      "name": "eventDate",
      "outputs": [
        {
          "internalType": "string",
          "name": "",
          "type": "string"
        }
      ],
      "stateMutability": "view",
      "type": "function"
    },
    {
      "inputs": [],
      "name": "eventLocation",
      "outputs": [
        {
          "internalType": "string",
          "name": "",
          "type": "string"
        }
      ],
      "stateMutability": "view",
      "type": "function"
    },
    {
      "inputs": [],
      "name": "eventName",
      "outputs": [
        {
          "internalType": "string",
          "name": "",
          "type": "string"
        }
      ],
      "stateMutability": "view",
      "type": "function"
    },
    {
      "inputs": [],
      "name": "maxSeatNumber",
      "outputs": [
        {
          "internalType": "uint256",
          "name": "",
          "type": "uint256"
        }
      ],
      "stateMutability": "view",
      "type": "function"
    },
    {
      "inputs": [],
      "name": "owner",
      "outputs": [
        {
          "internalType": "address",
          "name": "",
          "type": "address"
        }
      ],
      "stateMutability": "view",
      "type": "function"
    },
    {
      "inputs": [],
      "name": "price",
      "outputs": [
        {
          "internalType": "uint256",
          "name": "",
          "type": "uint256"
        }
      ],
      "stateMutability": "view",
      "type": "function"
    },
    {
      "inputs": [],
      "name": "remainingSeat",
      "outputs": [
        {
          "internalType": "uint256",
          "name": "",
          "type": "uint256"
        }
      ],
      "stateMutability": "view",
      "type": "function"
    },
    {
      "inputs": [],
      "name": "renounceOwnership",
      "outputs": [],
      "stateMutability": "nonpayable",
      "type": "function"
    },
    {
      "inputs": [
        {
          "internalType": "uint256",
          "name": "",
          "type": "uint256"
        }
      ],
      "name": "seat",
      "outputs": [
        {
          "internalType": "address",
          "name": "ownerOfSeat",
          "type": "address"
        },
        {
          "internalType": "bool",
          "name": "isTaken",
          "type": "bool"
        }
      ],
      "stateMutability": "view",
      "type": "function"
    },
    {
      "inputs": [
        {
          "internalType": "address",
          "name": "",
          "type": "address"
        }
      ],
      "name": "seatOwner",
      "outputs": [
        {
          "internalType": "uint256",
          "name": "",
          "type": "uint256"
        }
      ],
      "stateMutability": "view",
      "type": "function"
    },
    {
      "inputs": [
        {
          "internalType": "address",
          "name": "newOwner",
          "type": "address"
        }
      ],
      "name": "transferOwnership",
      "outputs": [],
      "stateMutability": "nonpayable",
      "type": "function"
    },
    {
      "inputs": [],
      "name": "withdraw",
      "outputs": [],
      "stateMutability": "nonpayable",
      "type": "function"
    }
  ],
  "transactionHash": "0x2448d9bc726b7bcd8598023d3204aa5d2485f7757e57b30d092c52aa0da56ab0",
  "args": [
    "Come back!",
    30,
    "Italy,Milano",
    "08.06.2024 18:00"
  ],
  "numDeployments": 1,
  "solcInputHash": "88aa041d7221b4457d85e9d6d1b9ada0",
  "bytecode": "0x608060405260016004556611c37937e080006009553480156200002157600080fd5b5060405162000c8a38038062000c8a8339810160408190526200004491620001a5565b6200004f3362000090565b60016200005d8582620002cf565b50600283905560038390556005620000768382620002cf565b506006620000858282620002cf565b50505050506200039b565b600080546001600160a01b038381166001600160a01b0319831681178455604051919092169283917f8be0079c531659141344cd1fd0a4f28419497f9722a3daafe3b4186f6b6457e09190a35050565b634e487b7160e01b600052604160045260246000fd5b600082601f8301126200010857600080fd5b81516001600160401b0380821115620001255762000125620000e0565b604051601f8301601f19908116603f01168101908282118183101715620001505762000150620000e0565b816040528381526020925086838588010111156200016d57600080fd5b600091505b8382101562000191578582018301518183018401529082019062000172565b600093810190920192909252949350505050565b60008060008060808587031215620001bc57600080fd5b84516001600160401b0380821115620001d457600080fd5b620001e288838901620000f6565b95506020870151945060408701519150808211156200020057600080fd5b6200020e88838901620000f6565b935060608701519150808211156200022557600080fd5b506200023487828801620000f6565b91505092959194509250565b600181811c908216806200025557607f821691505b6020821081036200027657634e487b7160e01b600052602260045260246000fd5b50919050565b601f821115620002ca57600081815260208120601f850160051c81016020861015620002a55750805b601f850160051c820191505b81811015620002c657828155600101620002b1565b5050505b505050565b81516001600160401b03811115620002eb57620002eb620000e0565b6200030381620002fc845462000240565b846200027c565b602080601f8311600181146200033b5760008415620003225750858301515b600019600386901b1c1916600185901b178555620002c6565b600085815260208120601f198616915b828110156200036c578886015182559484019460019091019084016200034b565b50858210156200038b5787850151600019600388901b60f8161c191681555b5050505050600190811b01905550565b6108df80620003ab6000396000f3fe6080604052600436106100e85760003560e01c8063715018a61161008a578063a2b40d1911610059578063a2b40d191461022b578063dec7fdee1461024b578063f2fde38b14610261578063fdb673681461028157600080fd5b8063715018a6146101c35780638043c9c0146101d85780638da5cb5b146101ed578063a035b1fe1461021557600080fd5b80634cd77ded116100c65780634cd77ded1461014457806350bdac751461015c57806361bc221a14610180578063695f87301461019657600080fd5b80632a6ca755146100ed5780633ccfd60b146101185780634bfbe5df1461012f575b600080fd5b3480156100f957600080fd5b506101026102e2565b60405161010f9190610792565b60405180910390f35b34801561012457600080fd5b5061012d610370565b005b34801561013b57600080fd5b5061010261040f565b61014c61041c565b604051901515815260200161010f565b34801561016857600080fd5b5061017260035481565b60405190815260200161010f565b34801561018c57600080fd5b5061017260045481565b3480156101a257600080fd5b506101726101b13660046107e0565b60086020526000908152604090205481565b3480156101cf57600080fd5b5061012d610644565b3480156101e457600080fd5b50610102610658565b3480156101f957600080fd5b506000546040516001600160a01b03909116815260200161010f565b34801561022157600080fd5b5061017260095481565b34801561023757600080fd5b5061012d610246366004610810565b610665565b34801561025757600080fd5b5061017260025481565b34801561026d57600080fd5b5061012d61027c3660046107e0565b610672565b34801561028d57600080fd5b506102c361029c366004610810565b6007602052600090815260409020546001600160a01b03811690600160a01b900460ff1682565b604080516001600160a01b03909316835290151560208301520161010f565b600580546102ef90610829565b80601f016020809104026020016040519081016040528092919081815260200182805461031b90610829565b80156103685780601f1061033d57610100808354040283529160200191610368565b820191906000526020600020905b81548152906001019060200180831161034b57829003601f168201915b505050505081565b6103786106e8565b604051600090339047908381818185875af1925050503d80600081146103ba576040519150601f19603f3d011682016040523d82523d6000602084013e6103bf565b606091505b505090508061040c5760405162461bcd60e51b81526020600482015260146024820152732330b4b632b2103a379039b2b7321022ba3432b960611b60448201526064015b60405180910390fd5b50565b600680546102ef90610829565b6000600954341461046f5760405162461bcd60e51b815260206004820152601f60248201527f596f75206469646e742073656e642065786163742073656174207072696365006044820152606401610403565b600454600090815260076020526040902054600160a01b900460ff16156104ee5760405162461bcd60e51b815260206004820152602d60248201527f5365617420616c72656164792074616b656e2e506c656173652073656c65637460448201526c08185b9bdd1a195c881cd9585d609a1b6064820152608401610403565b336000908152600860205260409020541561054b5760405162461bcd60e51b815260206004820152601760248201527f596f7520616c72656164792068617665206120736561740000000000000000006044820152606401610403565b60006003541161058c5760405162461bcd60e51b815260206004820152600c60248201526b139bc81cd9585d081b19599d60a21b6044820152606401610403565b60048054600090815260076020908152604080832080546001600160a01b0319163390811790915584548452818420805460ff60a01b1916600160a01b179055935484845260088352928190208390558051938452908301919091527fe5ccab30fda03e238bfb1e2e0264ed3f43d40178e0988ecb0b75729f0bd4ad01910160405180910390a16003805490600061062383610879565b90915550506004805490600061063883610890565b91905055506001905090565b61064c6106e8565b6106566000610742565b565b600180546102ef90610829565b61066d6106e8565b600955565b61067a6106e8565b6001600160a01b0381166106df5760405162461bcd60e51b815260206004820152602660248201527f4f776e61626c653a206e6577206f776e657220697320746865207a65726f206160448201526564647265737360d01b6064820152608401610403565b61040c81610742565b6000546001600160a01b031633146106565760405162461bcd60e51b815260206004820181905260248201527f4f776e61626c653a2063616c6c6572206973206e6f7420746865206f776e65726044820152606401610403565b600080546001600160a01b038381166001600160a01b0319831681178455604051919092169283917f8be0079c531659141344cd1fd0a4f28419497f9722a3daafe3b4186f6b6457e09190a35050565b600060208083528351808285015260005b818110156107bf578581018301518582016040015282016107a3565b506000604082860101526040601f19601f8301168501019250505092915050565b6000602082840312156107f257600080fd5b81356001600160a01b038116811461080957600080fd5b9392505050565b60006020828403121561082257600080fd5b5035919050565b600181811c9082168061083d57607f821691505b60208210810361085d57634e487b7160e01b600052602260045260246000fd5b50919050565b634e487b7160e01b600052601160045260246000fd5b60008161088857610888610863565b506000190190565b6000600182016108a2576108a2610863565b506001019056fea2646970667358221220ad6f83fe0abe4464fc75de723e16431f2bc96f2d9e829d5c815750e107af223464736f6c63430008110033",
  "devdoc": {
    "author": "emrekoca.eth",
    "kind": "dev",
    "methods": {
      "owner()": {
        "details": "Returns the address of the current owner."
      },
      "renounceOwnership()": {
        "details": "Leaves the contract without owner. It will not be possible to call `onlyOwner` functions anymore. Can only be called by the current owner. NOTE: Renouncing ownership will leave the contract without an owner, thereby removing any functionality that is only available to the owner."
      },
      "transferOwnership(address)": {
        "details": "Transfers ownership of the contract to a new account (`newOwner`). Can only be called by the current owner."
      }
    },
    "version": 1
  },
  "userdoc": {
    "kind": "user",
    "methods": {},
    "notice": "A smart contract that allows changing a state variable of the contract and tracking the changes It also allows the owner to withdraw the Ether in the contract",
    "version": 1
  },
  "storageLayout": {
    "storage": [
      {
        "astId": 7,
        "contract": "contracts/YourContract.sol:YourContract",
        "label": "_owner",
        "offset": 0,
        "slot": "0",
        "type": "t_address"
      },
      {
        "astId": 143,
        "contract": "contracts/YourContract.sol:YourContract",
        "label": "eventName",
        "offset": 0,
        "slot": "1",
        "type": "t_string_storage"
      },
      {
        "astId": 145,
        "contract": "contracts/YourContract.sol:YourContract",
        "label": "maxSeatNumber",
        "offset": 0,
        "slot": "2",
        "type": "t_uint256"
      },
      {
        "astId": 147,
        "contract": "contracts/YourContract.sol:YourContract",
        "label": "remainingSeat",
        "offset": 0,
        "slot": "3",
        "type": "t_uint256"
      },
      {
        "astId": 150,
        "contract": "contracts/YourContract.sol:YourContract",
        "label": "counter",
        "offset": 0,
        "slot": "4",
        "type": "t_uint256"
      },
      {
        "astId": 152,
        "contract": "contracts/YourContract.sol:YourContract",
        "label": "eventLocation",
        "offset": 0,
        "slot": "5",
        "type": "t_string_storage"
      },
      {
        "astId": 154,
        "contract": "contracts/YourContract.sol:YourContract",
        "label": "eventDate",
        "offset": 0,
        "slot": "6",
        "type": "t_string_storage"
      },
      {
        "astId": 170,
        "contract": "contracts/YourContract.sol:YourContract",
        "label": "seat",
        "offset": 0,
        "slot": "7",
        "type": "t_mapping(t_uint256,t_struct(seatSchema)165_storage)"
      },
      {
        "astId": 174,
        "contract": "contracts/YourContract.sol:YourContract",
        "label": "seatOwner",
        "offset": 0,
        "slot": "8",
        "type": "t_mapping(t_address,t_uint256)"
      },
      {
        "astId": 177,
        "contract": "contracts/YourContract.sol:YourContract",
        "label": "price",
        "offset": 0,
        "slot": "9",
        "type": "t_uint256"
      }
    ],
    "types": {
      "t_address": {
        "encoding": "inplace",
        "label": "address",
        "numberOfBytes": "20"
      },
      "t_bool": {
        "encoding": "inplace",
        "label": "bool",
        "numberOfBytes": "1"
      },
      "t_mapping(t_address,t_uint256)": {
        "encoding": "mapping",
        "key": "t_address",
        "label": "mapping(address => uint256)",
        "numberOfBytes": "32",
        "value": "t_uint256"
      },
      "t_mapping(t_uint256,t_struct(seatSchema)165_storage)": {
        "encoding": "mapping",
        "key": "t_uint256",
        "label": "mapping(uint256 => struct YourContract.seatSchema)",
        "numberOfBytes": "32",
        "value": "t_struct(seatSchema)165_storage"
      },
      "t_string_storage": {
        "encoding": "bytes",
        "label": "string",
        "numberOfBytes": "32"
      },
      "t_struct(seatSchema)165_storage": {
        "encoding": "inplace",
        "label": "struct YourContract.seatSchema",
        "members": [
          {
            "astId": 162,
            "contract": "contracts/YourContract.sol:YourContract",
            "label": "ownerOfSeat",
            "offset": 0,
            "slot": "0",
            "type": "t_address"
          },
          {
            "astId": 164,
            "contract": "contracts/YourContract.sol:YourContract",
            "label": "isTaken",
            "offset": 20,
            "slot": "0",
            "type": "t_bool"
          }
        ],
        "numberOfBytes": "32"
      },
      "t_uint256": {
        "encoding": "inplace",
        "label": "uint256",
        "numberOfBytes": "32"
      }
    }
  }
}